{
  "_format": "hh-sol-artifact-1",
  "contractName": "WavePortal",
  "sourceName": "contracts/WavePortal.sol",
  "abi": [
    {
      "inputs": [],
      "stateMutability": "nonpayable",
      "type": "constructor"
    },
    {
      "anonymous": false,
      "inputs": [
        {
          "indexed": true,
          "internalType": "address",
          "name": "from",
          "type": "address"
        },
        {
          "indexed": false,
          "internalType": "uint256",
          "name": "timestamp",
          "type": "uint256"
        },
        {
          "indexed": false,
          "internalType": "string",
          "name": "message",
          "type": "string"
        }
      ],
      "name": "NewNote",
      "type": "event"
    },
    {
      "inputs": [],
      "name": "getAllNotes",
      "outputs": [
        {
          "components": [
            {
              "internalType": "address",
              "name": "sender",
              "type": "address"
            },
            {
              "internalType": "string",
              "name": "message",
              "type": "string"
            },
            {
              "internalType": "uint256",
              "name": "timestamp",
              "type": "uint256"
            }
          ],
          "internalType": "struct WavePortal.Note[]",
          "name": "",
          "type": "tuple[]"
        }
      ],
      "stateMutability": "view",
      "type": "function"
    },
    {
      "inputs": [
        {
          "internalType": "address",
          "name": "_addr",
          "type": "address"
        }
      ],
      "name": "getSpecificWaves",
      "outputs": [
        {
          "internalType": "uint256",
          "name": "",
          "type": "uint256"
        }
      ],
      "stateMutability": "view",
      "type": "function"
    },
    {
      "inputs": [],
      "name": "getTotalNotes",
      "outputs": [
        {
          "internalType": "uint256",
          "name": "",
          "type": "uint256"
        }
      ],
      "stateMutability": "view",
      "type": "function"
    },
    {
      "inputs": [
        {
          "internalType": "string",
          "name": "_message",
          "type": "string"
        }
      ],
      "name": "write",
      "outputs": [],
      "stateMutability": "nonpayable",
      "type": "function"
    }
  ],
  "bytecode": "0x60806040523480156200001157600080fd5b506200005d6040518060400160405280600d81526020017f7374696c6c2062756c6c697368000000000000000000000000000000000000008152506200006360201b620005121760201c565b620001f7565b62000103816040516024016200007a919062000170565b6040516020818303038152906040527f41304fac000000000000000000000000000000000000000000000000000000007bffffffffffffffffffffffffffffffffffffffffffffffffffffffff19166020820180517bffffffffffffffffffffffffffffffffffffffffffffffffffffffff83818316178352505050506200010660201b60201c565b50565b60008151905060006a636f6e736f6c652e6c6f679050602083016000808483855afa5050505050565b60006200013c8262000194565b6200014881856200019f565b93506200015a818560208601620001b0565b6200016581620001e6565b840191505092915050565b600060208201905081810360008301526200018c81846200012f565b905092915050565b600081519050919050565b600082825260208201905092915050565b60005b83811015620001d0578082015181840152602081019050620001b3565b83811115620001e0576000848401525b50505050565b6000601f19601f8301169050919050565b610eff80620002076000396000f3fe608060405234801561001057600080fd5b506004361061004c5760003560e01c806323c2ea4814610051578063de8f430c1461006f578063ebaac7711461008d578063f780a4f9146100a9575b600080fd5b6100596100d9565b6040516100669190610b8d565b60405180910390f35b610077610124565b6040516100849190610ad4565b60405180910390f35b6100a760048036038101906100a291906108f1565b610275565b005b6100c360048036038101906100be91906108c8565b610442565b6040516100d09190610b8d565b60405180910390f35b600061011c6040518060400160405280601781526020017f5765206861766520256420746f74616c207761766573210000000000000000008152506000546105ab565b600054905090565b60606001805480602002602001604051908101604052809291908181526020016000905b8282101561026c57838290600052602060002090600302016040518060600160405290816000820160009054906101000a900473ffffffffffffffffffffffffffffffffffffffff1673ffffffffffffffffffffffffffffffffffffffff1673ffffffffffffffffffffffffffffffffffffffff1681526020016001820180546101d190610d68565b80601f01602080910402602001604051908101604052809291908181526020018280546101fd90610d68565b801561024a5780601f1061021f5761010080835404028352916020019161024a565b820191906000526020600020905b81548152906001019060200180831161022d57829003601f168201915b5050505050815260200160028201548152505081526020019060010190610148565b50505050905090565b60016000808282546102879190610c94565b92505081905550600260003373ffffffffffffffffffffffffffffffffffffffff1673ffffffffffffffffffffffffffffffffffffffff16815260200190815260200160002060008154809291906102de90610dcb565b91905055506103236040518060400160405280601781526020017f257320686173206d61646520746865206e6f74652025730000000000000000008152503383610647565b600160405180606001604052803373ffffffffffffffffffffffffffffffffffffffff16815260200183815260200142815250908060018154018082558091505060019003906000526020600020906003020160009091909190915060008201518160000160006101000a81548173ffffffffffffffffffffffffffffffffffffffff021916908373ffffffffffffffffffffffffffffffffffffffff16021790555060208201518160010190805190602001906103e29291906107a8565b506040820151816002015550503373ffffffffffffffffffffffffffffffffffffffff167f55a5e93dd1185895fca71e29877bc374f5ec5d2c054df92d4192775ae8e6dc7c4283604051610437929190610ba8565b60405180910390a250565b600061044d826106e6565b6104cb6040518060400160405280601381526020017f546865792073656e742025642077617665732100000000000000000000000000815250600260008573ffffffffffffffffffffffffffffffffffffffff1673ffffffffffffffffffffffffffffffffffffffff168152602001908152602001600020546105ab565b600260008373ffffffffffffffffffffffffffffffffffffffff1673ffffffffffffffffffffffffffffffffffffffff168152602001908152602001600020549050919050565b6105a8816040516024016105269190610af6565b6040516020818303038152906040527f41304fac000000000000000000000000000000000000000000000000000000007bffffffffffffffffffffffffffffffffffffffffffffffffffffffff19166020820180517bffffffffffffffffffffffffffffffffffffffffffffffffffffffff838183161783525050505061077f565b50565b61064382826040516024016105c1929190610b5d565b6040516020818303038152906040527f9710a9d0000000000000000000000000000000000000000000000000000000007bffffffffffffffffffffffffffffffffffffffffffffffffffffffff19166020820180517bffffffffffffffffffffffffffffffffffffffffffffffffffffffff838183161783525050505061077f565b5050565b6106e183838360405160240161065f93929190610b18565b6040516020818303038152906040527fe0e9ad4f000000000000000000000000000000000000000000000000000000007bffffffffffffffffffffffffffffffffffffffffffffffffffffffff19166020820180517bffffffffffffffffffffffffffffffffffffffffffffffffffffffff838183161783525050505061077f565b505050565b61077c816040516024016106fa9190610ab9565b6040516020818303038152906040527f2c2ecbc2000000000000000000000000000000000000000000000000000000007bffffffffffffffffffffffffffffffffffffffffffffffffffffffff19166020820180517bffffffffffffffffffffffffffffffffffffffffffffffffffffffff838183161783525050505061077f565b50565b60008151905060006a636f6e736f6c652e6c6f679050602083016000808483855afa5050505050565b8280546107b490610d68565b90600052602060002090601f0160209004810192826107d6576000855561081d565b82601f106107ef57805160ff191683800117855561081d565b8280016001018555821561081d579182015b8281111561081c578251825591602001919060010190610801565b5b50905061082a919061082e565b5090565b5b8082111561084757600081600090555060010161082f565b5090565b600061085e61085984610bfd565b610bd8565b90508281526020810184848401111561087657600080fd5b610881848285610d26565b509392505050565b60008135905061089881610eb2565b92915050565b600082601f8301126108af57600080fd5b81356108bf84826020860161084b565b91505092915050565b6000602082840312156108da57600080fd5b60006108e884828501610889565b91505092915050565b60006020828403121561090357600080fd5b600082013567ffffffffffffffff81111561091d57600080fd5b6109298482850161089e565b91505092915050565b600061093e8383610a4b565b905092915050565b61094f81610cea565b82525050565b61095e81610cea565b82525050565b600061096f82610c3e565b6109798185610c61565b93508360208202850161098b85610c2e565b8060005b858110156109c757848403895281516109a88582610932565b94506109b383610c54565b925060208a0199505060018101905061098f565b50829750879550505050505092915050565b60006109e482610c49565b6109ee8185610c72565b93506109fe818560208601610d35565b610a0781610ea1565b840191505092915050565b6000610a1d82610c49565b610a278185610c83565b9350610a37818560208601610d35565b610a4081610ea1565b840191505092915050565b6000606083016000830151610a636000860182610946565b5060208301518482036020860152610a7b82826109d9565b9150506040830151610a906040860182610a9b565b508091505092915050565b610aa481610d1c565b82525050565b610ab381610d1c565b82525050565b6000602082019050610ace6000830184610955565b92915050565b60006020820190508181036000830152610aee8184610964565b905092915050565b60006020820190508181036000830152610b108184610a12565b905092915050565b60006060820190508181036000830152610b328186610a12565b9050610b416020830185610955565b8181036040830152610b538184610a12565b9050949350505050565b60006040820190508181036000830152610b778185610a12565b9050610b866020830184610aaa565b9392505050565b6000602082019050610ba26000830184610aaa565b92915050565b6000604082019050610bbd6000830185610aaa565b8181036020830152610bcf8184610a12565b90509392505050565b6000610be2610bf3565b9050610bee8282610d9a565b919050565b6000604051905090565b600067ffffffffffffffff821115610c1857610c17610e72565b5b610c2182610ea1565b9050602081019050919050565b6000819050602082019050919050565b600081519050919050565b600081519050919050565b6000602082019050919050565b600082825260208201905092915050565b600082825260208201905092915050565b600082825260208201905092915050565b6000610c9f82610d1c565b9150610caa83610d1c565b9250827fffffffffffffffffffffffffffffffffffffffffffffffffffffffffffffffff03821115610cdf57610cde610e14565b5b828201905092915050565b6000610cf582610cfc565b9050919050565b600073ffffffffffffffffffffffffffffffffffffffff82169050919050565b6000819050919050565b82818337600083830152505050565b60005b83811015610d53578082015181840152602081019050610d38565b83811115610d62576000848401525b50505050565b60006002820490506001821680610d8057607f821691505b60208210811415610d9457610d93610e43565b5b50919050565b610da382610ea1565b810181811067ffffffffffffffff82111715610dc257610dc1610e72565b5b80604052505050565b6000610dd682610d1c565b91507fffffffffffffffffffffffffffffffffffffffffffffffffffffffffffffffff821415610e0957610e08610e14565b5b600182019050919050565b7f4e487b7100000000000000000000000000000000000000000000000000000000600052601160045260246000fd5b7f4e487b7100000000000000000000000000000000000000000000000000000000600052602260045260246000fd5b7f4e487b7100000000000000000000000000000000000000000000000000000000600052604160045260246000fd5b6000601f19601f8301169050919050565b610ebb81610cea565b8114610ec657600080fd5b5056fea2646970667358221220648c4a16a3437a9c1d6391321a4745dbfa05613bce5ab5c2914235a9070c8dd564736f6c63430008040033",
  "linkReferences": {},
  "deployedLinkReferences": {}
}